:020000040800F2
:100000007808002001540008095400080B54000827
:100010000D5400080F54000811540008000000009F
:100020000000000000000000000000001354000861
:10003000155400080000000017540008D1040008FF
:100040001B5400081B5400081B5400081B540008D4
:100050001B5400081B540008EB0400081B54000844
:100060001B5400081B5400081B5400081B540008B4
:100070001B5400081B5400081B5400081B540008A4
:100080001B5400081B5400081B5400081B54000894
:100090001B5400081B5400081B5400081B54000884
:1000A0001B5400081B5400081B5400081B54000874
:1000B0001B5400081B5400081B5400081B54000864
:1000C0001B5400081B5400081B5400081B54000854
:1000D0001B5400081B5400081B5400081B54000844
:1000E0001B5400081B5400081B5400081B54000834
:1000F0001B5400081B5400081B5400081B54000824
:100100001B5400081B5400081B5400081B54000813
:100110001B5400081B540008D90400081B54000895
:100120001B5400081B5400081B5400081B540008F3
:100130001B5400081B5400081B5400081B540008E3
:100140001B5400081B5400081B5400081B540008D3
:100150001B5400081B5400081B5400081B540008C3
:100160001B5400081B5400081B5400081B540008B3
:100170001B5400081B5400081B540008000000001A
:100180001B5400081B54000800F002F800F03CF873
:100190000AA090E8000C82448344AAF10107DA45E2
:1001A00001D100F031F8AFF2090EBAE80F0013F0F8
:1001B000010F18BFFB1A43F0010318471460000039
:1001C00034600000103A24BF78C878C1FAD85207CA
:1001D00024BF30C830C144BF04680C6070470000C1
:1001E0000023002400250026103A28BF78C1FBD840
:1001F000520728BF30C148BF0B6070471FB505F0DC
:10020000DCFF1FBD10B510BD05F025FA1146FFF744
:10021000F5FF00F009F805F043FA03B4FFF7F2FF29
:1002200003BC05F047FA000005F0A4F91B4800687C
:100230004FF47A72B0FBF2F1481EB0F1807F01D327
:1002400001201BE0481E4FF0E022506150170F22A2
:10025000002807DA13071D0E114B00F00F04241FAE
:100260001D5503E013071C0E0E4B1C5400BF00204D
:100270004FF0E022906107201061002008B100BF1C
:10028000FEE700F035F800F055F800F0A3F800F0B4
:10029000D6F801E003F0DBF9FCE70000F8000020ED
:1002A00018ED00E000E400E001B510490098086096
:1002B00000BF0E4800680028FBD108BD0B4800684D
:1002C00020B10A480068401E08490860704701B51F
:1002D0000098C0EBC00000EB4000009000BF009809
:1002E000411E00910028FAD108BD00000000002046
:1002F00010B50121022004F0ADF84FF40150694916
:10030000086001200871022048710020C8718871BE
:10031000654803F059FE4FF48040624908600020B0
:100320000871022048710020C87188715E4803F08E
:100330004BFE10BD10B50121084604F0CFF8012195
:10034000084604F087F84FF4807056490860022090
:10035000087103204871002088710120C87153483A
:1003600003F032FE01220821504803F0B8FE504845
:100370000068400841F28831B0FBF1F0401E4D4961
:10038000088042F210704C4948604A480088088052
:10039000002008814880494804F08DFA60204849CF
:1003A000088001204880002088608881434804F04C
:1003B00017FB0821414804F0A0FC01213F4804F04C
:1003C000E5FA01213D4804F0FFFA01213B4804F021
:1003D000ECFE10BD10B536480068400841F2883187
:1003E000B0FBF1F0401E334908800121102004F0D9
:1003F00064F8362033490870002048708870012066
:10040000C870084603F01BFA42F210702A4948608F
:1004100000200880088148802B4804F04CFA012213
:1004200024480188284804F083FA0122114626480E
:1004300004F0E2FE0121244804F0C6FA10BD10B514
:100440000121084604F006F8012016490860002042
:1004500008718871012048710020C871134803F0A9
:10046000B3FD0121880304F039F80021084604F0A7
:100470003DF90120154908600020087108204871E5
:1004800001208871084603F053FA06200D490870D0
:100490000520487001208870C870084603F0CFF925
:1004A00010BD0000040000200004024000000240D3
:1004B000F800002018000020280100200000014062
:1004C000340100200C00002000100040100000202B
:1004D00010B5FFF7F3FE10BD10B5012009490870F3
:1004E0000121094804F0B0FE10BD10B5012003F051
:1004F00085FA10B1012005490870012003F08FFA38
:1005000010BD0000E4000020001000401A00002090
:1005100070B52DED048B002500240020FD490860F6
:100520009FEDFD0BFE4880ED000B9FEDFB0BFD48A2
:1005300080ED000B4021FC4803F0C4FD1F2517E0AF
:100540004FF40051F84803F0BDFD4FF48041F648E8
:1005500003F09CFD30B10120A840EE490968084332
:10056000EC4908604FF40051EF4803F0A9FD6D1EFF
:10057000002DE5DA4021EC4803F0A2FDE5480078C3
:1005800000F0070000285FD1E8480068401CE749F8
:1005900008600020E6490870E6A0E8490860DD48E8
:1005A0000088C0F30B14E00A68B9204605F01AFB76
:1005B00041EC180B9FEDE20B53EC102B05F062FBA6
:1005C000D74A03C214E0E043401CC0F30A042046AB
:1005D00005F008FB41EC190B9FEDD90B53EC102BE8
:1005E00005F050FB41EC180B05F06BF8CC4A03C248
:1005F000C848006843F6FF7101EA9044600B68B98F
:10060000204605F0EFFA41EC180B9FEDCF0B53ECB1
:10061000102B05F037FBC34A03C231E0E043401C16
:10062000C0F30C04204605F0DDFA41EC190B9FEDF8
:10063000C60B53EC102B05F025FB41EC180B05F015
:1006400040F8B84A03C21BE00120B9490870B1481C
:10065000007800F00700012804D0022806D0032803
:100660000CD107E0BAA0B549086008E0BCA0B349C6
:10067000086004E0BEA0B149086000E000BF00BF10
:10068000BDEC048B70BD10B52DED068B9FEDA20B5C
:10069000B0EE408AF0EE608A9FED9F0BB0EE409A7C
:1006A000F0EE609A00241BE0FFF732FFA0480078CC
:1006B000A8B99B4890ED000B53EC102B51EC180B94
:1006C00005F03EF841EC180B964890ED000B53EC0A
:1006D000102B51EC190B05F033F841EC190B641C8D
:1006E0001E2CE1DB9148006814281EDD8F4800684D
:1006F00005F061FA41EC1A0B53EC1A2B51EC180B74
:1007000005F0D2F89E4A03C28848006805F053FA03
:1007100041EC1A0B53EC1A2B51EC190B05F0C4F8F1
:10072000984A03C2002081490860BDEC068B10BDC9
:1007300001460020944A914203D2B1F1006F00D3E8
:1007400050E0924A914204D28F4A914201D308204C
:1007500048E08F4A914204D28C4A914201D3102042
:1007600040E08C4A914204D2894A914201D3182038
:1007700038E0894A914204D2864A914201D320202E
:1007800030E0864A914204D2834A914201D3282024
:1007900028E0834A914204D2804A914201D330201A
:1007A00020E0804A914204D27D4A914201D3382010
:1007B00018E07D4A914204D27A4A914201D3402006
:1007C00010E07A4A914204D2774A914201D34820FC
:1007D00008E0774A914204D2744A914201D35020F2
:1007E00000E05820704770B504460E46154603F0E9
:1007F0005DF9F32003F073FB6648FFF799FF6D493D
:1008000008606548FFF794FF6B4908606948006815
:100810006A4908600DE002216848006803F092F917
:10082000082801D000BFFEE764480068083063492B
:10083000086062480068604909688842EBD3554CFB
:100840003146204603F027FA082801D1241D01E093
:1008500000BFFEE72946204603F01DFA082801D113
:10086000241D01E000BFFEE703F02DF970BD10B5B7
:100870002DED088B524890ED000B53EC102B9FEDA3
:10088000510B51EC100B05F0FDF941EC190B3D48F3
:1008900090ED000B53EC102B51EC190B05F0B6F951
:1008A00003D240F6B83049490880454890ED000B26
:1008B00053EC102B9FED460B51EC100B05F0E2F9B9
:1008C00041EC190B2F4890ED000B53EC102B51EC21
:1008D000190B05F00BFB41EC180B3F480088022870
:1008E00001D1012000E000203C490988022901D102
:1008F000012100E00021084000280AD0384890ED8E
:10090000042BB0EE420AF0EE620A364890ED022B5C
:100910006AE0DAE020000020000000000000000093
:100920003800002040000020000402404C0000205D
:1009300050000020576F726B696E670048000020FE
:10094000000000000000B03F000000000000D03FA9
:10095000204F70656E2043697263756974200000D2
:100960002053686F727420746F20474E442000003B
:100970002053686F727420746F2056434320000028
:1009800028000020300000200040000800800008FF
:1009900000C0000800000108000002080000040870
:1009A000000006080000080800000A0800000C0803
:1009B00000000E08D8000020DC000020E00000202D
:1009C00068000020333333333333E33FB200002079
:1009D000CDCCCCCCCCCCEC3FB6000020BA00002073
:1009E00000020020E8010020B0EE421AF0EE621A88
:1009F00053EC102B51EC110B05F084FA41EC1B0B5E
:100A00009FEDFC0B53EC102B05F03CF941EC190B5E
:100A1000FA49B1F90010480005F0CDF841EC1A0B85
:100A200053EC192B04F040FFF54A03C2F44890ED53
:100A3000000B53EC102B9FEDF30B51EC100B05F05A
:100A400021F941EC190B04F049FEF0490860F04827
:100A5000006805F0C7F841EC1A0BE94890ED000B6F
:100A600053EC102B9FEDEB0B51EC100B05F00AF93A
:100A700041EC1B0B53EC1A2B04F016FF41EC190B45
:100A800004F02CFEE5490860084690ED000ADFED11
:100A9000E40A20EE200ABCEEC00A10EE102ADB4861
:100AA00090ED000ADFEDDE0A20EE200ABCEEC00A5F
:100AB00010EE101ADB48FFF796FE0021DA4804F02A
:100AC000E8F80020D949087049E1D9480068D949B7
:100AD00009680844CE4908609FEDD70B53EC102BF2
:100AE00051EC180B05F0CCF97ED80020D4490860F1
:100AF000D4480088B8B9D4480088401C00B2D24914
:100B000008800020CA490860002407E01FED7E0B22
:100B1000CE4800EBC40080ED000B641C092CF5DD11
:100B20000020CB490880C2480068401CC0490860CA
:100B3000C74800880A2852D1C44890ED000BC54828
:100B4000C149B1F9001000EBC10080ED000B012498
:100B500029E0BE4800EBC40090ED002BB0EE420A45
:100B6000F0EE620ABB48B849B1F9001000EBC100D1
:100B700090ED002BB0EE421AF0EE621A53EC102BFF
:100B800051EC110B05F042F80CD2B04800EBC40058
:100B900090ED000BAF48AC49B1F9001000EBC1007B
:100BA00080ED000B641C092CD3DD002407E01FED51
:100BB000A60BA64800EBC40080ED000B641C092CBA
:100BC000F5DDA448A049B1F9001000EBC10090ED9B
:100BD000000B9E4880ED000B01209D4908809C4839
:100BE000B0F90000092800E015E010DC9A4890ED0B
:100BF000000B96489649B1F9001000EBC10080ED5A
:100C0000000B93480088401C00B2914908800120E5
:100C10008C4908809EE09FED910B53EC102B51EC1A
:100C2000180B04F0F3FFF5D87448B0F900008449BC
:100C3000086084480088012817D18A480088401C31
:100C400000B28849088000207A490860002407E043
:100C50001FEDCF0B844800EBC40080ED000B641C3B
:100C6000092CF5DD00208149088072480068401C8D
:100C7000704908607D4800880A2852D17A4890ED72
:100C8000000B7B487749B1F9001000EBC10080ED03
:100C9000000B012429E0744800EBC40090ED002B08
:100CA000B0EE420AF0EE620A71486E49B1F90010E6
:100CB00000EBC10090ED002BB0EE421AF0EE621A8C
:100CC00053EC102B51EC110B05F0DAF80CD26648FE
:100CD00000EBC40090ED000B65486249B1F90010CB
:100CE00000EBC10080ED000B641C092CD3DD002457
:100CF00007E01FEDF70B5C4800EBC40080ED000B34
:100D0000641C092CF5DD5A485649B1F9001000EB76
:100D1000C10090ED000B544880ED000B01205349B9
:100D200008805248B0F90000092810DC4A4890EDCC
:100D3000000B4D484D49B1F9001000EBC10080EDAA
:100D4000000B4A480088401C00B248490880002037
:100D50003C4908803A480168334803F09AFFBDECEB
:100D6000088B10BD10B52DED108BB0EE409AF0EE53
:100D7000609AF0EE418AF0EE61AAB0EE42FAB0EE6F
:100D800062AA18EE900A05F0A7F941EC1B0B53EC90
:100D9000192B05F075F802D29FED368AA7E01AEEFE
:100DA000900A05F099F941EC1B0B53EC192B05F057
:100DB00067F861D23AEEE80A10EE101A084605F01C
:100DC0008BF941EC1C0B18EE900A05F085F941EC0B
:100DD0001E0B53EC192B05F089F841EC1D0B53EC5D
:100DE0001C2B04F061FD41EC1B0B04F077FC08EEBA
:100DF000100A7CE050455254FB210940B20000200B
:100E0000D00000209A9999999999D93F9000002093
:100E1000C8000020B81E85EB51B8DE3F94000020CA
:100E20000024744900000108000001401A0000205D
:100E3000C0000020C4000020000000000000E03FCF
:100E4000A0000020BC000020B600002048010020C7
:100E5000B4000020E8010020300000200000000065
:100E60000000E0BFBA00002098010020B800002078
:100E700000020020000000001FEE100A05F02CF90F
:100E800041EC1B0B53EC192B04F0FAFF02D2B7EE26
:100E9000008A2CE01AEE100A05F01EF941EC1B0B3B
:100EA00053EC192B04F0ECFF1FD23AEE4F0A10EE70
:100EB000101A084605F010F941EC1B0B1AEE100A47
:100EC00005F00AF941EC1C0B53EC192B05F01AF84C
:100ED00041EC1D0B53EC1B2B04F0E6FC41EC1E0B0C
:100EE00004F0FCFB08EE100A01E01FED1E8AB0EED4
:100EF000480ABDEC108B10BD00B5ADF5397DFE483C
:100F000090ED000B53EC102BFC4890ED000B51ECD6
:100F1000100B04F0F7FF639162909DED620B53ECB0
:100F2000102BF74890ED000B51EC100B04F0BCFCBB
:100F3000B791B690F348006805F0CEF863916290DF
:100F4000F14890ED000B53EC102BED4890ED000BA9
:100F500051EC100B04F0D6FF619160909DED620B97
:100F600053EC102B9DED600B51EC100B04F09CFC2E
:100F7000B591B490FEEE002A9FEDE42AFAEE021A33
:100F8000BAEE041A9DEDB60BFFF7ECFE8DED630A89
:100F9000639805F0A1F8B391B2905FED4A2ABEEED6
:100FA000002AFEEE001A9FEDD91A9DEDB60BFFF751
:100FB000D9FE8DED630A639805F08EF8B191B0907B
:100FC000F6EE002A1FED552A5FED561ABEEE001A06
:100FD0009DEDB60BFFF7C6FE8DED630A639805F035
:100FE0007BF8AF91AE90DFEDCA2AB6EE002AF6EE9E
:100FF000001A1FED601A9DEDB60BFFF7B3FE8DEDE5
:10100000630A639805F068F8AD91AC90F2EE042A9B
:10101000B2EE022ADFEDBE1AB6EE001A9DEDB60B57
:10102000FFF7A0FE8DED630A639805F055F8AB91CC
:10103000AA90FDEE002ABEEE002AFAEE021ABAEEDF
:10104000041A9DEDB40BFFF78DFE8DED630A6398D6
:1010500005F042F8A991A8905FED7A2ABDEE002A2A
:10106000FDEE001ABEEE001A9DEDB40BFFF77AFEFE
:101070008DED630A639805F02FF8A791A690F5EE21
:10108000002A1FED842A5FED851ABDEE001A9DED42
:10109000B40BFFF767FE8DED630A639805F01CF84B
:1010A000A591A490F6EE002AB5EE002AF5EE001AFE
:1010B0001FED901A9DEDB40BFFF754FE8DED630A02
:1010C000639805F009F8A391A290F2EE042AB2EE1B
:1010D000022AF6EE001AB5EE001A9DEDB40BFFF7EA
:1010E00041FE8DED630A639804F0F6FFA191A09094
:1010F0009FED880B8DED9E0B9FED880B8DED9C0B6E
:101100009FED880B8DED9A0B9FED880B8DED980B65
:101110009FED880B8DED960B9DEDA80B53EC102BDE
:101120009DEDB20B51EC100B04F0ACFD6591649099
:101130009DEDA60B53EC102B9DEDB20B51EC100B5B
:1011400004F0A0FD679166909DEDA40B53EC102B6D
:101150009DEDB20B51EC100B04F094FD6991689079
:101160009DEDA20B53EC102B9DEDB20B51EC100B2F
:1011700004F088FD6B916A909DEDA00B53EC102B51
:101180009DEDB20B51EC100B04F07CFD6D916C9059
:101190009DEDA80B53EC102B9DEDB00B51EC100BFB
:1011A00004F070FD6F916E909DEDA60B53EC102B2B
:1011B0009DEDB00B51EC100B04F064FD719170903B
:1011C0009DEDA40B53EC102B9DEDB00B51EC100BCF
:1011D00004F058FD739172909DEDA20B53EC102B0F
:1011E0009DEDB00B51EC100B04F04CFD759174901B
:1011F0009DEDA00B53EC102B9DEDB00B51EC100BA3
:1012000004F040FD779176909DEDA80B53EC102BE8
:101210009DEDAE0B51EC100B04F034FD79917890FC
:101220009DEDA60B53EC102B9DEDAE0B51EC100B6E
:1012300004F028FD7B917A909DEDA40B53EC102BCC
:101240009DEDAE0B51EC100B04F01CFD7D917C90DC
:101250009DEDA20B53EC102B9DEDAE0B51EC100B42
:1012600004F010FD7F917E909DEDA00B53EC102BB0
:101270009DEDAE0B51EC100B04F004FD81918090BC
:101280009DEDA80B53EC102B9DEDAC0B51EC100B0E
:1012900004F0F8FC839182909DEDA60B53EC102B8B
:1012A0009DEDAC0B51EC100B04F0ECFC859184909F
:1012B0009DEDA40B53EC102B9DEDAC0B51EC100BE2
:1012C00004F0E0FC879186909DEDA20B53EC102B6F
:1012D0009DEDAC0B51EC100B04F0D4FC899188907F
:1012E0009DEDA00B53EC102B9DEDAC0B51EC100BB6
:1012F00004F0C8FC8B9121E0280000206800002049
:10130000580000209C00002060000020CDCC4CBF85
:10131000CDCC4C3F00000000000000009A99999944
:101320009999B93F000000000000D03F33333333B8
:101330003333E33F000000000000F03F8A909DED52
:10134000A80B53EC102B9DEDAA0B51EC100B04F0E5
:1013500099FC8D918C909DEDA60B53EC102B9DED7F
:10136000AA0B51EC100B04F08DFC8F918E909DED2B
:10137000A40B53EC102B9DEDAA0B51EC100B04F0B9
:1013800081FC919190909DEDA20B53EC102B9DED63
:10139000AA0B51EC100B04F075FC939192909DED0B
:1013A000A00B53EC102B9DEDAA0B51EC100B04F08D
:1013B00069FC959194909DED940B8DED5C0B9DEDEA
:1013C000960B53EC102B9DED5C0B51EC100B04F0C5
:1013D00059FC619160909DED920B8DED580B9DED48
:1013E000960B53EC102B9DED580B51EC100B04F0A9
:1013F00049FC5D915C909DED900B8DED540B9DED46
:10140000960B53EC102B9DED540B51EC100B04F08C
:1014100039FC599158909DED8E0B8DED500B9DED43
:10142000960B53EC102B9DED500B51EC100B04F070
:1014300029FC559154909DED8C0B8DED4C0B9DED41
:10144000980B53EC102B9DED4C0B51EC100B04F052
:1014500019FC519150909DED8A0B8DED480B9DED3F
:10146000960B53EC102B9DED480B51EC100B04F038
:1014700009FC4D914C909DED880B8DED440B9DED3D
:10148000960B53EC102B9DED440B51EC100B04F01C
:10149000F9FB499148909DED860B8DED400B9DED3C
:1014A000980B53EC102B9DED400B51EC100B04F0FE
:1014B000E9FB459144909DED840B8DED3C0B9DED3A
:1014C0009A0B53EC102B9DED3C0B51EC100B04F0E0
:1014D000D9FB419140909DED820B8DED380B9DED38
:1014E0009C0B53EC102B9DED380B51EC100B04F0C2
:1014F000C9FBCDE93C019DED800B8DED340B9DEDDD
:101500009A0B53EC102B9DED340B51EC100B04F0A7
:10151000B9FBCDE938019DED7E0B8DED300B9DEDD6
:101520009C0B53EC102B9DED300B51EC100B04F089
:10153000A9FBCDE934019DED7C0B8DED2C0B9DEDD0
:101540009E0B53EC102B9DED2C0B51EC100B04F06B
:1015500099FBCDE930019DED7A0B8DED280B9DEDCA
:101560009E0B53EC102B9DED280B51EC100B04F04F
:1015700089FBCDE92C019DED780B8DED240B9DEDC4
:101580009E0B53EC102B9DED240B51EC100B04F033
:1015900079FBCDE928019DED760B8DED200B9DEDBE
:1015A0009C0B53EC102B9DED200B51EC100B04F019
:1015B00069FBCDE924019DED740B8DED1C0B9DEDB8
:1015C0009E0B53EC102B9DED1C0B51EC100B04F0FB
:1015D00059FBCDE920019DED720B8DED180B9DEDB2
:1015E0009E0B53EC102B9DED180B51EC100B04F0DF
:1015F00049FBCDE91C019DED700B8DED140B9DEDAC
:101600009E0B53EC102B9DED140B51EC100B04F0C2
:1016100039FBCDE918019DED6E0B8DED100B9DEDA5
:101620009E0B53EC102B9DED100B51EC100B04F0A6
:1016300029FBCDE914019DED6C0B8DED0C0B9DED9F
:101640009E0B53EC102B9DED0C0B51EC100B04F08A
:1016500019FBCDE910019DED6A0B8DED080B9DED99
:101660009E0B53EC102B9DED080B51EC100B04F06E
:1016700009FBCDE90C019DED680B8DED040B9DED93
:101680009E0B53EC102B9DED040B51EC100B04F052
:10169000F9FACDE908019DED660B8DED000B9DED8E
:1016A0009E0B53EC102B9DED000B51EC100B04F036
:1016B000E9FACDE904019DED640B8DED000B9DED84
:1016C0009E0B53EC102B9DED000B51EC100B04F016
:1016D000D9FACDE902019DED040B53EC102B9DEDE1
:1016E000020B51EC100B04F02BF8CDE906019DED37
:1016F000080B53EC102B9DED060B51EC100B04F076
:101700001FF8CDE90A019DED0C0B53EC102B9DED5C
:101710000A0B51EC100B04F013F8CDE90E019DED0E
:10172000100B53EC102B9DED0E0B51EC100B04F035
:1017300007F8CDE912019DED140B53EC102B9DED34
:10174000120B51EC100B03F0FBFFCDE916019DEDE0
:10175000180B53EC102B9DED160B51EC100B03F0F6
:10176000EFFFCDE91A019DED1C0B53EC102B9DED05
:101770001A0B51EC100B03F0E3FFCDE91E019DEDB8
:10178000200B53EC102B9DED1E0B51EC100B03F0B6
:10179000D7FFCDE922019DED240B53EC102B9DEDDD
:1017A000220B51EC100B03F0CBFFCDE926019DED90
:1017B000280B53EC102B9DED260B51EC100B03F076
:1017C000BFFFCDE92A019DED2C0B53EC102B9DEDB5
:1017D0002A0B51EC100B03F0B3FFCDE92E019DED68
:1017E000300B53EC102B9DED2E0B51EC100B03F036
:1017F000A7FFCDE932019DED340B53EC102B9DED8D
:10180000320B51EC100B03F09BFFCDE936019DED3F
:10181000380B53EC102B9DED360B51EC100B03F0F5
:101820008FFFCDE93A019DED3C0B53EC102B9DED64
:101830003A0B51EC100B03F083FFCDE93E019DED17
:10184000400B53EC102B9DED3E0B51EC100B03F0B5
:1018500077FF439142909DED440B53EC102B9DED8F
:10186000420B51EC100B03F06BFF479146909DED3E
:10187000480B53EC102B9DED460B51EC100B03F075
:101880005FFF4B914A909DED4C0B53EC102B9DED5F
:101890004A0B51EC100B03F053FF4F914E909DED0E
:1018A000500B53EC102B9DED4E0B51EC100B03F035
:1018B00047FF539152909DED540B53EC102B9DED2F
:1018C000520B51EC100B03F03BFF579156909DEDDE
:1018D000580B53EC102B9DED560B51EC100B03F0F5
:1018E0002FFF5B915A909DED5C0B53EC102B9DEDFF
:1018F0005A0B51EC100B03F023FF5F915E909DEDAE
:10190000600B53EC102B9DED5E0B51EC100B03F0B4
:1019100017FF9FEDFD0B53EC102B639162909DED33
:10192000620B51EC100B04F0ADF9F94A03C29FEDC4
:10193000F60B53EC102BF64890ED000B51EC100B0E
:1019400004F09EFA04D242F21070F249088019E0C5
:101950009FEDF10B53EC102BED4890ED000B51EC8B
:10196000100B04F053F903D20020EA49088009E083
:10197000E74890ED000B51EC100B04F0EDF800B2CD
:10198000E44908800DF5397D00BD10B52DED088BBB
:10199000E348006804F0A0FB41EC180BE14890ED2F
:1019A000000B53EC102B51EC180B04F06BF9DE4AD2
:1019B00003C2DE48006804F08FFB41EC190BDC48E1
:1019C000006804F089FB41EC1B0BD64890ED000B3E
:1019D00053EC102B51EC1B0B04F054F941EC1A0B97
:1019E00053EC192B04F04EF941EC180BD14890ED53
:1019F000000B53EC102B51EC180B03F0A1FECD4A59
:101A000003C2CA48006804F067FB41EC190BCA48DE
:101A100090ED000B53EC102BC24890ED000B51ECF5
:101A2000100B04F06FFA41EC1B0BC448006804F083
:101A300053FB41EC180B53EC1B2B04F023F941EC46
:101A40001A0B53EC192B03F02FFFBD4A03C2B94800
:101A500090ED000B53EC102BB34890ED000B51ECC4
:101A6000100B03F06DFE41EC180BB54890ED000B28
:101A700053EC102B51EC180B03F062FEB14A03C279
:101A80009FEDA10B53EC102BAE4890ED000B51ECE9
:101A9000100B04F0F5F904D242F21070AA49086064
:101AA00018E09FED9D0B53EC102BA64890ED000B1A
:101AB00051EC100B04F0AAF803D20020A2490860F0
:101AC00008E0A04890ED000B51EC100B04F044F836
:101AD0009D490860BDEC088B10BD00B5ADF2244DEA
:101AE0009A4890ED000B53EC102B994890ED000BA9
:101AF00051EC100B04F006FA8F918E909DED8E0B39
:101B000053EC102B874890ED000B51EC100B03F0B9
:101B1000CBFE0DF5826203C28448006804F0DCFA53
:101B20008F918E90844890ED000B53EC102B7D48E4
:101B300090ED000B51EC100B04F0E4F98D918C90BA
:101B40009DED8E0B53EC102B9DED8C0B51EC100B7F
:101B500003F0AAFE0DF5816203C2DFED7E2ABEEE20
:101B6000002AFAEE021ABAEE041A0DF5806090ED22
:101B7000040BFFF7F7F88DED8F0A8F9804F0ACFA9D
:101B8000F591F490DFED742A9FED722ADFED711A62
:101B9000BEEE001A0DF5806090ED040BFFF7E2F841
:101BA0008DED8F0A8F9804F097FAF791F690DFED9C
:101BB0006B2A9FED692ADFED681A9FED661A0DF515
:101BC000806090ED040BFFF7CDF88DED8F0A8F98B4
:101BD00004F082FAF991F890DFED612A9FED5F2A17
:101BE000DFED5E1A9FED5C1A0DF5806090ED040B41
:101BF000FFF7B8F88DED8F0A8F9804F06DFAFB911E
:101C0000FA90F6EE002A9FED562ADFED551A9FED69
:101C1000531A0DF5806090ED040BFFF7A3F88DEDDE
:101C20008F0A8F9804F058FAFD91FC90DFED4D2A51
:101C3000B6EE002AF6EE001A9FED491A0DF5806007
:101C400090ED040BFFF78EF88DED8F0A8F9804F05E
:101C500043FAFF91FE90F2EE042AB2EE022ADFED83
:101C6000411AB6EE001A0DF5806090ED040BFFF7F7
:101C700079F88DED8F0A8F9804F02EFA0DF58062B9
:101C800003C2DFED392A9FED392AFAEE021ABAEEC5
:101C9000041A0DF5806090ED020BFFF763F88DEDEF
:101CA0008F0A8F9804F018FAEB91EA90DFED2A2A58
:101CB0009FED2D2ADFED2C1A9FED2C1A0DF580607B
:101CC00090ED020BFFF74EF88DED8F0A8F9804F020
:101CD00003FAED91EC90DFED262A9FED1F2ADFED50
:101CE0001E1A9FED211A0DF5806090ED020BFFF793
:101CF00039F88DED8F0A8F9804F0EEF9EF91EE90A0
:101D0000DFED182A36E00000000000000088C34024
:101D1000A8000020B000002000000000000000002B
:101D20009000002058000020700000209C0000203F
:101D3000940000207800002060000020980000201F
:101D40008000002088000020A00000202800002043
:101D500068000020CDCCCCBD00000000CDCCCC3D37
:101D6000CDCC4C3E3333333F9A9999BE333333BF96
:101D70009A99993E1FED022A5FED031A1FED0A1A88
:101D80000DF5806090ED020BFEF7ECFF8DED8F0AF4
:101D90008F9804F0A1F9F191F090F2EE042AB2EEDE
:101DA000022A5FED101A1FED0E1A0DF5806090EDFE
:101DB000020BFEF7D7FF8DED8F0A8F9804F08CF998
:101DC000F391F2909FEDFE0B8DEDE80B9FEDFE0B76
:101DD0008DEDE60B9FEDFE0B8DEDE40B9FEDFE0B05
:101DE0008DEDE20B9FEDFE0B8DEDE00B9FEDFE0BFD
:101DF0008DEDDE0B9FEDFE0B8DEDDC0B9FEDFE0BF5
:101E00008DEDDA0B9FEDFE0B8DEDD80B9FEDFE0BEC
:101E10008DEDD60B0020CDF81C043DE00020CDF860
:101E200018042DE0EAA9DDF8180401EBC00090EDDC
:101E3000000B8DED8E0BF4A9DDF81C0401EBC00046
:101E400090ED000B8DED8C0B9DED8E0B53EC102B5C
:101E50009DED8C0B51EC100B03F014FF0A4601466C
:101E6000DDF81C0400EB8003DDF81804184490AB87
:101E700003EBC00006C0DDF81804401CCDF81804C0
:101E8000DDF818040428CDDD0020CDF81804DDF8B5
:101E90001C04401CCDF81C04DDF81C040628BDDD24
:101EA0009DEDD40B8DED840B9DEDD60B53EC102BDB
:101EB0009DED840B51EC100B03F0E4FE89918890AA
:101EC0009DEDD20B8DED800B9DEDD60B53EC102BC1
:101ED0009DED800B51EC100B03F0D4FE85918490A6
:101EE0009DEDD00B8DED7C0B9DEDD60B53EC102BA7
:101EF0009DED7C0B51EC100B03F0C4FE81918090A2
:101F00009DEDCE0B8DED780B9DEDD80B53EC102B8A
:101F10009DED780B51EC100B03F0B4FE7D917C909D
:101F20009DEDCC0B8DED740B9DEDDA0B53EC102B6E
:101F30009DED740B51EC100B03F0A4FE7991789099
:101F40009DEDCA0B8DED700B9DEDD60B53EC102B58
:101F50009DED700B51EC100B03F094FE7591749095
:101F60009DEDC80B8DED6C0B9DEDD80B53EC102B3C
:101F70009DED6C0B51EC100B03F084FE7191709091
:101F80009DEDC60B8DED680B9DEDDA0B53EC102B20
:101F90009DED680B51EC100B03F074FE6D916C908D
:101FA0009DEDC40B8DED640B9DEDDC0B53EC102B04
:101FB0009DED640B51EC100B03F064FE6991689089
:101FC0009DEDC20B8DED600B9DEDDE0B53EC102BE8
:101FD0009DED600B51EC100B03F054FE6591649085
:101FE0009DEDC00B8DED5C0B9DEDD60B53EC102BD6
:101FF0009DED5C0B51EC100B03F044FE6191609081
:102000009DEDBE0B8DED580B9DEDD60B53EC102BBB
:102010009DED580B51EC100B03F034FE5D915C907C
:102020009DEDBC0B8DED540B9DEDE00B53EC102B97
:102030009DED540B51EC100B03F024FE5991589078
:102040009DEDBA0B8DED500B9DEDE20B53EC102B7B
:102050009DED500B51EC100B03F014FE5591549074
:102060009DEDB80B8DED4C0B9DEDE40B53EC102B5F
:102070009DED4C0B51EC100B03F004FE5191509070
:102080009DEDB60B8DED480B9DEDD60B53EC102B53
:102090009DED480B51EC100B03F0F4FD4D914C906D
:1020A0009DEDB40B8DED440B9DEDD60B53EC102B39
:1020B0009DED440B51EC100B03F0E4FD4991489069
:1020C0009DEDB20B8DED400B9DEDDE0B53EC102B17
:1020D0009DED400B51EC100B03F0D4FD4591449065
:1020E0009DEDB00B8DED3C0B9DEDE00B53EC102BFB
:1020F0009DED3C0B51EC100B03F0C4FD4191409061
:102100009DEDAE0B8DED380B9DEDE20B53EC102BDE
:102110009DED380B51EC100B03F0B4FDCDE93C0103
:102120009DEDAC0B8DED340B9DEDDC0B53EC102BCA
:102130009DED340B51EC100B03F0A4FDCDE93801FB
:102140009DEDAA0B8DED300B9DEDDA0B53EC102BB2
:102150009DED300B51EC100B03F094FDCDE93401F3
:102160009DEDA80B8DED2C0B9DEDDC0B53EC102B96
:102170009DED2C0B51EC100B03F084FDCDE93001EB
:102180009DEDA60B8DED280B9DEDDE0B53EC102B7A
:102190009DED280B51EC100B03F074FDCDE92C01E3
:1021A0009DEDA40B8DED240B9DEDDE0B53EC102B60
:1021B0009DED240B51EC100B03F064FD28E00000B2
:1021C0007B14AE47E17A943F7B14AE47E17AA43F9B
:1021D0007B14AE47E17AB43F7B14AE47E17AC43F4B
:1021E000000000000000D03F9A9999999999D93F31
:1021F000000000000000E03F333333333333E33F6C
:102200009A9999999999E93F000000000000F03FE0
:10221000CDE928019DEDA20B8DED200B9DEDE80B86
:1022200053EC102B9DED200B51EC100B03F02AFD0D
:10223000CDE924019DEDA00B8DED1C0B9DEDE60B72
:1022400053EC102B9DED1C0B51EC100B03F01AFD01
:10225000CDE920019DED9E0B8DED180B9DEDE00B62
:1022600053EC102B9DED180B51EC100B03F00AFDF5
:10227000CDE91C019DED9C0B8DED140B9DEDDE0B4E
:1022800053EC102B9DED140B51EC100B03F0FAFCEA
:10229000CDE918019DED9A0B8DED100B9DEDDC0B3A
:1022A00053EC102B9DED100B51EC100B03F0EAFCDE
:1022B000CDE914019DED980B8DED0C0B9DEDE20B1E
:1022C00053EC102B9DED0C0B51EC100B03F0DAFCD2
:1022D000CDE910019DED960B8DED080B9DEDE00B0A
:1022E00053EC102B9DED080B51EC100B03F0CAFCC6
:1022F000CDE90C019DED940B8DED040B9DEDE20BF2
:1023000053EC102B9DED040B51EC100B03F0BAFCB9
:10231000CDE908019DED920B8DED000B9DEDE00BDD
:1023200053EC102B9DED000B51EC100B03F0AAFCAD
:10233000CDE904019DED900B8DED000B9DEDDE0BC5
:1023400053EC102B9DED000B51EC100B03F09AFC9D
:10235000CDE902019DED040B53EC102B9DED020B1A
:1023600051EC100B03F0ECF9CDE906019DED080BE3
:1023700053EC102B9DED060B51EC100B03F0E0F924
:10238000CDE90A019DED0C0B53EC102B9DED0A0BD2
:1023900051EC100B03F0D4F9CDE90E019DED100BBB
:1023A00053EC102B9DED0E0B51EC100B03F0C8F904
:1023B000CDE912019DED140B53EC102B9DED120B8A
:1023C00051EC100B03F0BCF9CDE916019DED180B93
:1023D00053EC102B9DED160B51EC100B03F0B0F9E4
:1023E000CDE91A019DED1C0B53EC102B9DED1A0B42
:1023F00051EC100B03F0A4F9CDE91E019DED200B6B
:1024000053EC102B9DED1E0B51EC100B03F098F9C3
:10241000CDE922019DED240B53EC102B9DED220BF9
:1024200051EC100B03F08CF9CDE926019DED280B42
:1024300053EC102B9DED260B51EC100B03F080F9A3
:10244000CDE92A019DED2C0B53EC102B9DED2A0BB1
:1024500051EC100B03F074F9CDE92E019DED300B1A
:1024600053EC102B9DED2E0B51EC100B03F068F983
:10247000CDE932019DED340B53EC102B9DED320B69
:1024800051EC100B03F05CF9CDE936019DED380BF2
:1024900053EC102B9DED360B51EC100B03F050F963
:1024A000CDE93A019DED3C0B53EC102B9DED3A0B21
:1024B00051EC100B03F044F9CDE93E019DED400BCA
:1024C00053EC102B9DED3E0B51EC100B03F038F943
:1024D000439142909DED440B53EC102B9DED420B2C
:1024E00051EC100B03F02CF9479146909DED480BF1
:1024F00053EC102B9DED460B51EC100B03F020F923
:102500004B914A909DED4C0B53EC102B9DED4A0BDB
:1025100051EC100B03F014F94F914E909DED500BC0
:1025200053EC102B9DED4E0B51EC100B03F008F902
:10253000539152909DED540B53EC102B9DED520B8B
:1025400051EC100B03F0FCF8579156909DED580B91
:1025500053EC102B9DED560B51EC100B03F0F0F8E3
:102560005B915A909DED5C0B53EC102B9DED5A0B3B
:1025700051EC100B03F0E4F85F915E909DED600B61
:1025800053EC102B9DED5E0B51EC100B03F0D8F8C3
:10259000639162909DED640B53EC102B9DED620BEB
:1025A00051EC100B03F0CCF8679166909DED680B31
:1025B00053EC102B9DED660B51EC100B03F0C0F8A3
:1025C0006B916A909DED6C0B53EC102B9DED6A0B9B
:1025D00051EC100B03F0B4F86F916E909DED700B01
:1025E00053EC102B9DED6E0B51EC100B03F0A8F883
:1025F000739172909DED740B53EC102B9DED720B4B
:1026000051EC100B03F09CF8779176909DED780BD0
:1026100053EC102B9DED760B51EC100B03F090F862
:102620007B917A909DED7C0B53EC102B9DED7A0BFA
:1026300051EC100B03F084F87F917E909DED800BA0
:1026400053EC102B9DED7E0B51EC100B03F078F842
:10265000839182909DED840B53EC102B9DED820BAA
:1026600051EC100B03F06CF8879186909DED880B70
:1026700053EC102B9DED860B51EC100B03F060F822
:102680009FEDFE0B53EC102B8B918A909DED8A0BE6
:1026900051EC100B03F0F6FA9FEDFA0B53EC102BF4
:1026A0008D918C909DED8C0B51EC100B03F048F844
:1026B0008F918E909DED8E0B51EC100B03F00EF868
:1026C000F24908609DEDD40B8DED880B9DEDD60B86
:1026D00053EC102B9DED880B51EC100B03F0D2FA4C
:1026E0008D918C909DEDD20B8DED840B9DEDD80BD3
:1026F00053EC102B9DED840B51EC100B03F0C2FA40
:10270000899188909DEDD00B8DED800B9DEDE80BB0
:1027100053EC102B9DED800B51EC100B03F0B2FA33
:10272000859184909DEDCE0B8DED7C0B9DEDE60BA0
:1027300053EC102B9DED7C0B51EC100B03F0A2FA27
:10274000819180909DEDCC0B8DED780B9DEDE40B90
:1027500053EC102B9DED780B51EC100B03F092FA1B
:102760007D917C909DEDCA0B8DED740B9DEDD80B8A
:1027700053EC102B9DED740B51EC100B03F082FA0F
:10278000799178909DEDC80B8DED700B9DEDDA0B76
:1027900053EC102B9DED700B51EC100B03F072FA03
:1027A000759174909DEDC60B8DED6C0B9DEDE80B56
:1027B00053EC102B9DED6C0B51EC100B03F062FAF7
:1027C000719170909DEDC40B8DED680B9DEDE60B46
:1027D00053EC102B9DED680B51EC100B03F052FAEB
:1027E0006D916C909DEDC20B8DED640B9DEDE40B36
:1027F00053EC102B9DED640B51EC100B03F042FADF
:10280000699168909DEDC00B8DED600B9DEDD80B2F
:1028100053EC102B9DED600B51EC100B03F032FAD2
:10282000659164909DEDBE0B8DED5C0B9DEDD60B1F
:1028300053EC102B9DED5C0B51EC100B03F022FAC6
:10284000619160909DEDBC0B8DED580B9DEDE80BFB
:1028500053EC102B9DED580B51EC100B03F012FABA
:102860005D915C909DEDBA0B8DED540B9DEDE60BEB
:1028700053EC102B9DED540B51EC100B03F002FAAE
:10288000599158909DEDB80B8DED500B9DEDE40BDB
:1028900053EC102B9DED500B51EC100B03F0F2F9A3
:1028A000559154909DEDB60B8DED4C0B9DEDD80BD5
:1028B00053EC102B9DED4C0B51EC100B03F0E2F997
:1028C000519150909DEDB40B8DED480B9DEDD60BC5
:1028D00053EC102B9DED480B51EC100B03F0D2F98B
:1028E0004D914C909DEDB20B8DED440B9DEDDA0BAF
:1028F00053EC102B9DED440B51EC100B03F0C2F97F
:10290000499148909DEDB00B8DED400B9DEDDC0B9A
:1029100053EC102B9DED400B51EC100B03F0B2F972
:10292000459144909DEDAE0B8DED3C0B9DEDDE0B86
:1029300053EC102B9DED3C0B51EC100B03F0A2F966
:10294000419140909DEDAC0B8DED380B9DEDE40B6E
:1029500053EC102B9DED380B51EC100B03F092F95A
:10296000CDE93C019DEDAA0B8DED340B9DEDE20B05
:1029700053EC102B9DED340B51EC100B03F082F94E
:10298000CDE938019DEDA80B8DED300B9DEDE00BF1
:1029900053EC102B9DED300B51EC100B03F072F942
:1029A000CDE934019DEDA60B8DED2C0B9DEDDE0BDD
:1029B00053EC102B9DED2C0B51EC100B03F062F936
:1029C000CDE930019DEDA40B8DED280B9DEDDE0BC7
:1029D00053EC102B9DED280B51EC100B03F052F92A
:1029E000CDE92C019DEDA20B8DED240B9DEDE80BA7
:1029F00053EC102B9DED240B51EC100B03F042F91E
:102A0000CDE928019DEDA00B8DED200B9DEDE80B90
:102A100053EC102B9DED200B51EC100B03F032F911
:102A2000CDE924019DED9E0B8DED1C0B9DEDE60B7C
:102A300053EC102B9DED1C0B51EC100B03F022F905
:102A4000CDE920019DED9C0B8DED180B9DEDE40B68
:102A500053EC102B9DED180B51EC100B03F012F9F9
:102A6000CDE91C019DED9A0B8DED140B9DEDE20B54
:102A700053EC102B9DED140B0AE000000000000049
:102A800000C07240000000000000F03F90000020F5
:102A900051EC100B03F0F6F8CDE918019DED980B01
:102AA0008DED100B9DEDE80B53EC102B9DED100BF5
:102AB00051EC100B03F0E6F8CDE914019DED960BF7
:102AC0008DED0C0B9DEDE80B53EC102B9DED0C0BDD
:102AD00051EC100B03F0D6F8CDE910019DED940BED
:102AE0008DED080B9DEDE80B53EC102B9DED080BC5
:102AF00051EC100B03F0C6F8CDE90C019DED920BE3
:102B00008DED040B9DEDE60B53EC102B9DED040BAE
:102B100051EC100B03F0B6F8CDE908019DED900BD8
:102B20008DED040B9DEDE40B53EC102B9DED040B90
:102B300051EC100B03F0A6F8CDE906019DED080B52
:102B400053EC102B9DED060B51EC100B02F0F8FD31
:102B5000CDE90A019DED0C0B53EC102B9DED0A0BFA
:102B600051EC100B02F0ECFDCDE90E019DED100BC8
:102B700053EC102B9DED0E0B51EC100B02F0E0FD11
:102B8000CDE912019DED140B53EC102B9DED120BB2
:102B900051EC100B02F0D4FDCDE916019DED180BA0
:102BA00053EC102B9DED160B51EC100B02F0C8FDF1
:102BB000CDE91A019DED1C0B53EC102B9DED1A0B6A
:102BC00051EC100B02F0BCFDCDE91E019DED200B78
:102BD00053EC102B9DED1E0B51EC100B02F0B0FDD1
:102BE000CDE922019DED240B53EC102B9DED220B22
:102BF00051EC100B02F0A4FDCDE926019DED280B50
:102C000053EC102B9DED260B51EC100B02F098FDB0
:102C1000CDE92A019DED2C0B53EC102B9DED2A0BD9
:102C200051EC100B02F08CFDCDE92E019DED300B27
:102C300053EC102B9DED2E0B51EC100B02F080FD90
:102C4000CDE932019DED340B53EC102B9DED320B91
:102C500051EC100B02F074FDCDE936019DED380BFF
:102C600053EC102B9DED360B51EC100B02F068FD70
:102C7000CDE93A019DED3C0B53EC102B9DED3A0B49
:102C800051EC100B02F05CFDCDE93E019DED400BD7
:102C900053EC102B9DED3E0B51EC100B02F050FD50
:102CA000439142909DED440B53EC102B9DED420B54
:102CB00051EC100B02F044FD479146909DED480BFE
:102CC00053EC102B9DED460B51EC100B02F038FD30
:102CD0004B914A909DED4C0B53EC102B9DED4A0B04
:102CE00051EC100B02F02CFD4F914E909DED500BCE
:102CF00053EC102B9DED4E0B51EC100B02F020FD10
:102D0000539152909DED540B53EC102B9DED520BB3
:102D100051EC100B02F014FD579156909DED580B9D
:102D200053EC102B9DED560B51EC100B02F008FDEF
:102D30005B915A909DED5C0B53EC102B9DED5A0B63
:102D400051EC100B02F0FCFC5F915E909DED600B6E
:102D500053EC102B9DED5E0B51EC100B02F0F0FCD0
:102D6000639162909DED640B53EC102B9DED620B13
:102D700051EC100B02F0E4FC679166909DED680B3E
:102D800053EC102B9DED660B51EC100B02F0D8FCB0
:102D90006B916A909DED6C0B53EC102B9DED6A0BC3
:102DA00051EC100B02F0CCFC6F916E909DED700B0E
:102DB00053EC102B9DED6E0B51EC100B02F0C0FC90
:102DC000739172909DED740B53EC102B9DED720B73
:102DD00051EC100B02F0B4FC779176909DED780BDE
:102DE00053EC102B9DED760B51EC100B02F0A8FC70
:102DF0007B917A909DED7C0B53EC102B9DED7A0B23
:102E000051EC100B02F09CFC7F917E909DED800BAD
:102E100053EC102B9DED7E0B51EC100B02F090FC4F
:102E2000839182909DED840B53EC102B9DED820BD2
:102E300051EC100B02F084FC879186909DED880B7D
:102E400053EC102B9DED860B51EC100B02F078FC2F
:102E50008B918A909DED8C0B53EC102B9DED8A0B82
:102E600051EC100B02F06CFC8F918E909DED8E0B4F
:102E700051EC100B02F032FCFE4908609DEDD40BC2
:102E80008DED860B9DEDE40B53EC102B9DED860B29
:102E900051EC100B02F0F6FE8B918A909DEDD20B57
:102EA0008DED820B9DEDE60B53EC102B9DED820B0F
:102EB00051EC100B02F0E6FE879186909DEDD00B51
:102EC0008DED7E0B9DEDE80B53EC102B9DED7E0BF5
:102ED00051EC100B02F0D6FE839182909DEDCE0B4B
:102EE0008DED7A0B9DEDE80B53EC102B9DED7A0BDD
:102EF00051EC100B02F0C6FE7F917E909DEDCC0B45
:102F00008DED760B9DEDE80B53EC102B9DED760BC4
:102F100051EC100B02F0B6FE7B917A909DEDCA0B3E
:102F20008DED720B9DEDE00B53EC102B9DED720BB4
:102F300051EC100B02F0A6FE779176909DEDC80B38
:102F40008DED6E0B9DEDE20B53EC102B9DED6E0B9A
:102F500051EC100B02F096FE739172909DEDC60B32
:102F60008DED6A0B9DEDE80B53EC102B9DED6A0B7C
:102F700051EC100B02F086FE6F916E909DEDC40B2C
:102F80008DED660B9DEDE60B53EC102B9DED660B66
:102F900051EC100B02F076FE6B916A909DEDC20B26
:102FA0008DED620B9DEDE40B53EC102B9DED620B50
:102FB00051EC100B02F066FE679166909DEDC00B20
:102FC0008DED5E0B9DEDDC0B53EC102B9DED5E0B40
:102FD00051EC100B02F056FE639162909DEDBE0B1A
:102FE0008DED5A0B9DEDDE0B53EC102B9DED5A0B26
:102FF00051EC100B02F046FE5F915E909DEDBC0B14
:103000008DED560B9DEDE80B53EC102B9DED560B03
:1030100051EC100B02F036FE5B915A909DEDBA0B0D
:103020008DED520B9DEDE60B53EC102B9DED520BED
:1030300051EC100B02F026FE579156909DEDB80B07
:103040008DED4E0B9DEDE40B53EC102B9DED4E0BD7
:1030500051EC100B02F016FE539152909DEDB60B01
:103060008DED4A0B9DEDD80B53EC102B9DED4A0BCB
:1030700051EC100B02F006FE4F914E909DEDB40BFB
:103080008DED460B9DEDDA0B53EC102B9DED460BB1
:1030900051EC100B02F0F6FD4B914A909DEDB20BF6
:1030A0008DED420B9DEDE60B53EC102B9DED420B8D
:1030B00051EC100B02F0E6FD479146909DEDB00BF0
:1030C0008DED3E0B9DEDE40B53EC102B9DED3E0B77
:1030D00051EC100B02F0D6FD439142909DEDAE0BEA
:1030E0008DED3A0B9DEDE20B53EC102B9DED3A0B61
:1030F00051EC100B02F0C6FDCDE93E019DEDAC0B8D
:103100008DED360B9DEDE00B53EC102B9DED360B4A
:1031100051EC100B02F0B6FDCDE93A019DEDAA0B82
:103120008DED320B9DEDE20B53EC102B9DED320B30
:1031300051EC100B02F0A6FDCDE936019DEDA80B78
:103140008DED2E0B9DEDDC0B53EC102B9DED2E0B1E
:1031500051EC100B02F096FDCDE932019DEDA60B6E
:103160008DED2A0B9DEDDA0B53EC102B9DED2A0B08
:1031700051EC100B02F086FDCDE92E019DEDA40B64
:103180008DED260B9DEDD80B53EC102B9DED260BF2
:1031900051EC100B02F076FDCDE92A019DEDA20B5A
:1031A0008DED220B9DEDE40B53EC102B9DED220BCE
:1031B00051EC100B02F066FDCDE926019DEDA00B50
:1031C0008DED1E0B9DEDE60B53EC102B9DED1E0BB4
:1031D00051EC100B02F056FDCDE922019DED9E0B46
:1031E0008DED1A0B9DEDDE0B53EC102B9DED1A0BA4
:1031F00051EC100B02F046FDCDE91E019DED9C0B3C
:103200008DED160B9DEDDC0B53EC102B9DED160B8D
:1032100051EC100B02F036FDCDE91A019DED9A0B31
:103220008DED120B9DEDDA0B53EC102B9DED120B77
:1032300051EC100B02F026FDCDE916019DED980B27
:103240008DED0E0B9DEDE80B53EC102B9DED0E0B51
:1032500051EC100B02F016FDCDE912019DED960B1D
:103260008DED0A0B9DEDE80B53EC102B9DED0A0B39
:1032700002E000009400002051EC100B02F002FD6F
:10328000CDE90E019DED940B8DED060B9DEDE80B48
:1032900053EC102B9DED060B51EC100B02F0F2FCE1
:1032A000CDE90A019DED920B8DED020B9DEDD80B42
:1032B00053EC102B9DED020B51EC100B02F0E2FCD5
:1032C000CDE906019DED900B8DED020B9DEDD60B2A
:1032D00053EC102B9DED020B51EC100B02F0D2FCC5
:1032E000CDE904019DED060B53EC102B9DED040B75
:1032F00051EC100B02F024FACDE908019DED0A0B08
:1033000053EC102B9DED080B51EC100B02F018FA4A
:10331000CDE90C019DED0E0B53EC102B9DED0C0B2C
:1033200051EC100B02F00CFACDE910019DED120BDF
:1033300053EC102B9DED100B51EC100B02F000FA2A
:10334000CDE914019DED160B53EC102B9DED140BE4
:1033500051EC100B02F0F4F9CDE918019DED1A0BB8
:1033600053EC102B9DED180B51EC100B02F0E8F90B
:10337000CDE91C019DED1E0B53EC102B9DED1C0B9C
:1033800051EC100B02F0DCF9CDE920019DED220B90
:1033900053EC102B9DED200B51EC100B02F0D0F9EB
:1033A000CDE924019DED260B53EC102B9DED240B54
:1033B00051EC100B02F0C4F9CDE928019DED2A0B68
:1033C00053EC102B9DED280B51EC100B02F0B8F9CB
:1033D000CDE92C019DED2E0B53EC102B9DED2C0B0C
:1033E00051EC100B02F0ACF9CDE930019DED320B40
:1033F00053EC102B9DED300B51EC100B02F0A0F9AB
:10340000CDE934019DED360B53EC102B9DED340BC3
:1034100051EC100B02F094F9CDE938019DED3A0B17
:1034200053EC102B9DED380B51EC100B02F088F98A
:10343000CDE93C019DED3E0B53EC102B9DED3C0B7B
:1034400051EC100B02F07CF9419140909DED420B44
:1034500053EC102B9DED400B51EC100B02F070F96A
:10346000459144909DED460B53EC102B9DED440B84
:1034700051EC100B02F064F9499148909DED4A0B14
:1034800053EC102B9DED480B51EC100B02F058F94A
:103490004D914C909DED4E0B53EC102B9DED4C0B34
:1034A00051EC100B02F04CF9519150909DED520BE4
:1034B00053EC102B9DED500B51EC100B02F040F92A
:1034C000559154909DED560B53EC102B9DED540BE4
:1034D00051EC100B02F034F9599158909DED5A0BB4
:1034E00053EC102B9DED580B51EC100B02F028F90A
:1034F0005D915C909DED5E0B53EC102B9DED5C0B94
:1035000051EC100B02F01CF9619160909DED620B83
:1035100053EC102B9DED600B51EC100B02F010F9E9
:10352000659164909DED660B53EC102B9DED640B43
:1035300051EC100B02F004F9699168909DED6A0B53
:1035400053EC102B9DED680B51EC100B02F0F8F8CA
:103550006D916C909DED6E0B53EC102B9DED6C0BF3
:1035600051EC100B02F0ECF8719170909DED720B24
:1035700053EC102B9DED700B51EC100B02F0E0F8AA
:10358000759174909DED760B53EC102B9DED740BA3
:1035900051EC100B02F0D4F8799178909DED7A0BF4
:1035A00053EC102B9DED780B51EC100B02F0C8F88A
:1035B0007D917C909DED7E0B53EC102B9DED7C0B53
:1035C00051EC100B02F0BCF8819180909DED820BC4
:1035D00053EC102B9DED800B51EC100B02F0B0F86A
:1035E000859184909DED860B53EC102B9DED840B03
:1035F00051EC100B02F0A4F8899188909DED8A0B94
:1036000053EC102B9DED880B51EC100B02F098F849
:103610009FED720B53EC102B8D918C909DED8C0BCC
:1036200051EC100B02F02EFB8F918E909DED8E0BC6
:1036300051EC100B02F052F86A4908600DF2244D6B
:1036400000BD016800EE901AB8EEE00A704710B5B0
:103650002DED028B64480078012870D16348007812
:1036600001282FD16248FFF7ECFFDFED620A80EE00
:10367000201A614880ED001A5D48001DFFF7E1FF48
:10368000DFED5C0A80EE201A5C4880ED001A5A4893
:1036900090ED000AB5EEC00AF1EE10FA01D8012053
:1036A00000E00020554991ED000AB5EEC00AF1EEA8
:1036B00010FA01D8012100E00021084010B10120DA
:1036C0004F490870FCF7DFFF4D480078B0BB4D480C
:1036D00090ED000B53EC102B4B4890ED000B51EC90
:1036E000100B02F00FFC494A03C2FEF7F6F9FEF791
:1036F0004CF9FDF701FC454890ED000B444880ED86
:10370000000B414890ED000B53EC102B9FED410B4B
:1037100051EC100B02F0B6FA41EC180B394890ED61
:10372000000B53EC102B51EC180B02F06FFA07D87A
:103730003A4801683A4801F0ACFA2CE007E02DE085
:103740003848B0F90010364801F0A3FA23E02E48BB
:1037500090ED000B53EC102B9FED330B51EC100B45
:1037600002F090FA41EC180B264890ED000B53EC58
:10377000102B51EC180B02F083FB01D8012000E064
:1037800000202B49096809B1012100E0002108430C
:1037900008B1FDF76CF800201449087000201249A8
:1037A0000870BDEC028B10BDD0ED000AB0EE600ACF
:1037B00000210FE000EB8102D2ED000AF4EEC00A16
:1037C000F1EE10FA05DD00EB8102D2ED000AB0EE59
:1037D000600A491C0429EDDD70470000000000006C
:1037E0000088C34098000020E4000020E50000208D
:1037F000000001080024744990000020940000207B
:103800001A0000203000002068000020580000202E
:10381000600000200000000000000000A000002068
:1038200000000140B00000209A9999999999E93FC8
:10383000C800002032490143324A1160704770B518
:10384000002100230F22C4781CB32E4C246804F4FA
:10385000E064C4F5E064C4F30721C1F10404E3B2F9
:103860000A4144789C40E1B28478144021430C071B
:10387000210E254C05786155047804F01F050124BC
:10388000AC4005786D11AD0005F1E025C5F80041AB
:1038900009E0047804F01F050124AC401B4D0678B4
:1038A000761145F8264070BD194A0A400243154B6F
:1038B0001B1F1A60704739B1124A121D1268024369
:1038C000104B1B1D1A6006E00E4A121D126882433F
:1038D0000C4B1B1D1A607047042808D14FF0E021E3
:1038E000096941F004014FF0E022116107E04FF057
:1038F000E021096921F004014FF0E02211617047D5
:103900000000FA050CED00E000E400E080E100E0DA
:1039100080FFFF1F002044490860091D0860091D41
:103920000860091D086041483F491431086070472C
:1039300000213D498279002A3AD00A46126803687C
:103940009A430B461A600A1D126803689A430B1DBE
:103950001A60027911440A6803681A430A60324AFD
:103960000832126803689A432F4B08331A601A1DF5
:10397000126803689A432C4B0C331A604279102A60
:103980000ED11A1F126803681A43274B08331A60B6
:103990001A1D126803681A43234B0C331A600DE09A
:1039A0002149427911440A6803681A430A6005E014
:1039B000027911440A6803689A430A60704700213B
:1039C000016001710C21417100218171704716491C
:1039D000103109680143144A1032116070470146E2
:1039E0000020114A143212680A400AB1012000E096
:1039F000002070470C4914310860704701460020D0
:103A00000022094B1B6803EA0102074B14331B68B1
:103A10000B4013B10AB1012000E0002070470249B9
:103A20001431086070470000003C0140FFFF7F0038
:103A3000FE4A1070704730B1FC49096841F480714A
:103A4000FA4A116005E0F949096821F48071F74AE2
:103A50001160704730B1F549096841F40071F34ACB
:103A6000116005E0F149096821F40071EF4A116025
:103A7000704730B1ED49096841F48061EB4A11604B
:103A800005E0EA49096821F48061E84A116070475D
:103A9000E648006840F40060E44908607047E34885
:103AA000006840F48050E14908607047DF481030FA
:103AB000006800F0004028B1DD48DC49091D0860BD
:103AC000DC4808607047D9481030006840F000407A
:103AD000D6491031086070470820D4490C31096874
:103AE00001F48031B1F5803F01D1012018E0CF49C8
:103AF0000C31096801F0100109B1052010E0CB4933
:103B00000C31096801F0EF0109B1062008E0C7494E
:103B10000C31096801F0020109B1072000E008201A
:103B2000704708B508200090FFF7D6FF009002E02C
:103B3000FFF7D2FF00909DF800000128F8D09DF813
:103B4000000008BD70B504460A460026082502B9E3
:103B500009E0012A01D1160205E0022A01D116026C
:103B600001E04FF44076FFF7DCFF0546082D2DD12C
:103B7000AE481030006820F44070AC491031086045
:103B800008460068304308600846006820F0F800E6
:103B900008600846006844F002010843A349103158
:103BA00008600846006840F480300860FFF7B9FFFD
:103BB00005469E481030006820F002009B491031F5
:103BC00008600846006820F0F8000860284670BDCC
:103BD00030B5024600250824FFF7A3FF044602B9CA
:103BE00009E0012A01D1150205E0022A01D11502DE
:103BF00001E04FF44075082C20D18C48103000684B
:103C000020F4407089491031086008460068284354
:103C100008600846006840F0040008600846006834
:103C200040F480300860FFF77CFF04467F48103086
:103C3000006820F004007D4910310860204630BD46
:103C400070B5064614461D460822FFF76AFF024675
:103C5000082A1ED175481030006820F4407073495E
:103C6000103108600846006840F44070086008465B
:103C7000006840F00100086034607560FFF751FF94
:103C800002466A481030006820F001006749103190
:103C90000860104670BD30B502460C460825FFF797
:103CA00040FF0546082D1DD160481030006820F403
:103CB00040705E49103108600846006840F40070AA
:103CC00008600846006840F0010008601460FFF7D3
:103CD00028FF054655481030006820F00100534980
:103CE00010310860284630BD30B502460C46082524
:103CF000FFF717FF0546082D1DD14C48103000680E
:103D000020F440704949103108600846006840F4CA
:103D1000807008600846006840F001000860148068
:103D2000FFF7FFFE054641481030006820F0010013
:103D30003E4910310860284630BD30B502460C4679
:103D40000825FFF7EEFE0546082D1BD13748103039
:103D5000006820F44070354910310860084600685A
:103D600008600846006840F0010008601470FFF722
:103D7000D8FE05462D481030006820F001002B4980
:103D800010310860284630BD28481430006800F023
:103D9000010028B1284825490831086027480860F3
:103DA000704722481430006840F001001F49143168
:103DB0000860704730B502460C460825FFF7B1FE93
:103DC0000546082D10D13CB11848163000889043A4
:103DD00016491631088007E014481630008891B261
:103DE000084312491631088030BD10B50246082438
:103DF000FFF797FE0446082C02D10C4815300270DC
:103E000010BDF0B504460D46FF260827FFF789FED2
:103E10000746082F16D105481430007800F00F0629
:103E200045EA060010432043004909E0003C0240F7
:103E300023016745AB89EFCD3B2A19087F6E5D4CA6
:103E400014310870F0BD2849097821F00C01264A88
:103E500011701146097801431170704700B50822AE
:103E60002148007840F002001F490870FFF759FE12
:103E70000246104600BD1C480068C0F3471070475A
:103E80001948801C0088704700201749491C097890
:103E9000AA2901D0012000E00020704712480078D4
:103EA00000F00C00704739B10F4A121F126802432C
:103EB0000D4B1B1F1A6006E00B4A121F126882434B
:103EC000094B1B1F1A60704701460020064A083A3A
:103ED00012680A400AB1012000E000207047024940
:103EE0000839086070470000143C024010B50446D1
:103EF0008C48844208D10121084600F000FB0021D3
:103F0000012000F0FCFA5EE08748844208D10121DC
:103F1000022000F0F4FA0021022000F0F0FA52E052
:103F20008248844208D10121042000F0E8FA0021EF
:103F3000042000F0E4FA46E07D48844208D10121E3
:103F4000082000F0DCFA0021082000F0D8FA3AE05E
:103F50007848844208D10121102000F0D0FA0021D5
:103F6000102000F0CCFA2EE07348844208D10121E1
:103F7000202000F0C4FA0021202000F0C0FA22E046
:103F80006E48844208D10121402000F0B8FA002197
:103F9000402000F0B4FA16E06948844208D10121BB
:103FA000802000F0ACFA0021802000F0A8FA0AE09E
:103FB0006448844207D10121801500F0A0FA002155
:103FC000A01500F09CFA10BDF0B50A4600210023B0
:103FD000002400BF3DE0012505FA01F3156805EA5C
:103FE00003049C4234D105684F000326BE40B5430C
:103FF000056015794E00B5400668354305601579B2
:10400000012D02D01579022D16D185684F000326A7
:10401000BE40B543856055794E00B540866835434E
:104020008560456801268E40B543456045689679B0
:104030008E40B6B235434560C5684F000326BE408A
:10404000B543C560D5794E00B540C6683543C560F7
:10405000491C1029BFD3F0BD4FF6FF71016000214C
:10406000017141718171C171704708B54FF480329F
:104070000092009A0A430092009AC261C161009ABC
:10408000C261C2690092C269009208BD0246002066
:1040900013690B400BB1012000E00020704701467E
:1040A000086980B270470246002053690B400BB18B
:1040B000012000E0002070470146486980B2704747
:1040C00001837047418370470AB1018300E0418357
:1040D00070474161704742694A4042617047F0B59C
:1040E000002300244D07ED0E02FA05F3CE1000F177
:1040F000200555F826504E07F70E0F26BE40B54353
:10410000CF1000F1200646F82750CE1000F1200510
:1041100055F8265045EA0304CE1000F1200545F875
:104120002640F0BD000002400004024000080240AA
:10413000000C02400010024000140240001802402F
:10414000001C024000200240FA48006840F00100D4
:10415000F84908600020F74908310860F548006810
:10416000F5490840F3490860F448091D0860081F34
:10417000006820F48020091F08600020ED490C3100
:10418000086070470021EB4A921C117011460870BC
:10419000704710B501460022002300204A11012A71
:1041A00002D1E44C236808E0022A03D1E14C7034C8
:1041B000236802E0DF4C7434236801F01F020124FD
:1041C00094401C400CB1012000E0002010BD38B527
:1041D000002000900024002500BF3120FFF7D9FF08
:1041E00005460098401C00900098B0F5A06F01D0E3
:1041F000002DF2D03120FFF7CCFF08B1012400E000
:104200000024204638BD01460020CA4A106820F02C
:10421000F80040EAC10010607047C9490860704763
:104220000021C44A703211701170012802D0042894
:104230000AD104E00121BF4A7032117005E0052166
:10424000BC4A7032117000E000BF00BF7047BD492A
:104250000860704770B5049C41EA82150126C6EBE0
:10426000530645EA0645054345EA0465B14E361D49
:10427000356070BDB24908667047820142EA01723A
:10428000AC4B84331A607047AD4988667047AC49BF
:10429000C864704702460020A64B0833186820F017
:1042A000EC6042EA01031843A24B083318607047E0
:1042B000024600209F4B0833186820F0784042EAFD
:1042C000010318439B4B08331860704701460020D8
:1042D000984A0832106820F00300084310607047C5
:1042E00094480830006800F00C0070470146002038
:1042F000904A0832106820F0F000084310607047C0
:10430000014600208B4A0832106820F4E050084330
:104310001060704701460020864A0832106820F479
:10432000604040EAC10010607047F0B500210022F3
:1043300000240225002602237E4F08373F6807F03D
:104340000C0121B1042905D0082937D105E07E4FA1
:10435000076036E07D4F076033E0764F3F1D3F68D2
:10436000C7F38056734F3F1D3F6807F03F036EB1A0
:10437000764FB7FBF3F7DFF8BCC10CF1040CDCF8A7
:1043800000C0CCF3881C07FB0CF40CE06E4FB7FBAD
:10439000F3F7DFF8A0C10CF1040CDCF800C0CCF39B
:1043A000881C07FB0CF4634F3F1D3F68C7F30147B0
:1043B0007F1C7D00B4FBF5F7076002E0624F0760E9
:1043C00000BF00BF5B4F08373F6807F0F0010909E5
:1043D0005F4F7A5C0768D7404760564F08373F68A1
:1043E00007F4E051890A5A4F7A5C4768D7408760E2
:1043F000504F08373F6807F46041490B544F7A5CCF
:104400004768D740C760F0BD002100F44072B2F5A4
:10441000407F0AD1474A0832116821F4F8114D4A09
:1044200002401143434A08321160424A7032126816
:10443000C0F30B031A433F4B70331A607047414976
:104440004439086070473F49403908607047424925
:104450000860704739B1374A303212680243354B31
:1044600030331A6006E0334A303212688243314BEF
:1044700030331A60704739B12E4A34321268024321
:104480002C4B34331A6006E02A4A343212688243D5
:10449000284B34331A60704739B1264A38321268D3
:1044A0000243244B38331A6006E0224A383212683D
:1044B0008243204B38331A60704739B11D4A40326D
:1044C000126802431B4B40331A6006E0194A40321F
:1044D00012688243174B40331A60704739B1154A4E
:1044E000443212680243134B44331A6006E0114A07
:1044F0004432126882430F4B44331A60704739B11B
:104500000C4A1032126802430A4B10331A6006E05C
:10451000084A103212688243064B10331A60704703
:10452000E1B1044A143212680243024B14331A6098
:1045300019E0000000380240FFFFF6FE10300024B2
:1045400000004742800E47420024F40000127A0027
:10455000E6000020FFFCFF0F5C0147425B4A126847
:1045600082435A4B1A60704739B1584A121D12687B
:104570000243564B1B1D1A6006E0544A121D126876
:104580008243524B1B1D1A60704739B14F4A0C329F
:10459000126802434D4B0C331A6006E04B4A0C3252
:1045A00012688243494B0C331A60704739B1474A4D
:1045B000103212680243454B10331A6006E0434A3A
:1045C000103212688243414B10331A60704739B180
:1045D0003E4A3C32126802433C4B3C331A6006E0D0
:1045E0003A4A3C3212688243384B3C331A60704777
:1045F00039B1364A403212680243344B40331A60B4
:1046000006E0324A403212688243304B40331A602F
:10461000704739B12D4A4432126802432B4B443360
:104620001A6006E0294A443212688243274B443319
:104630001A60704739B1254A4C3212680243234B45
:104640004C331A6006E0214A4C32126882431F4BF9
:104650004C331A60704739B11C4A50321268024319
:104660001A4B50331A6006E0184A503212688243DF
:10467000164B50331A60704739B1144AD21F127862
:104680000243124BDB1F1A7006E0104AD21F127849
:1046900082430E4BDB1F1A7070470C486030006875
:1046A00040F0807009496031086070470146002081
:1046B000064A083A12680A400AB1012000E00020C8
:1046C00070470249891F0870704700001438024083
:1046D00010B501218803FFF769FF00214FF48040E6
:1046E000FFF764FF10BD1A490860704730B500221B
:1046F0008B071C0F0F2303FA04F2154B08338C10A1
:1047000053F824309343124C08348D1044F825306C
:1047100023468C1053F824308C07240F00FA04F43D
:1047200023430B4C08348D1044F8253030BD094923
:10473000086070470849086070470020044920312C
:10474000096801F4807109B1012000E00020704780
:1047500000380140DC0027420004274210B504461F
:10476000FE48844208D101210846FFF71FFF0021BF
:104770000120FFF71BFF9DE0B4F1804F08D101211C
:104780000846FFF702FF00210120FFF7FEFE91E03F
:10479000F348844208D101210220FFF7F6FE0021F0
:1047A0000220FFF7F2FE85E0EE48844208D10121A5
:1047B0000420FFF7EAFE00210420FFF7E6FE79E07F
:1047C000E948844208D101210820FFF7DEFE0021DC
:1047D0000820FFF7DAFE6DE0E448844208D10121A9
:1047E0001020FFF7D2FE00211020FFF7CEFE61E07F
:1047F000DF48844208D101212020FFF7C6FE0021B6
:104800002020FFF7C2FE55E0DA48844208D101219A
:104810000220FFF7CBFE00210220FFF7C7FE49E090
:10482000D548844209D101210804FFF7BFFE0021C9
:104830004FF48030FFF7BAFE3CE0D048844209D103
:1048400001214804FFF7B2FE00214FF40030FFF7CA
:10485000ADFE2FE0CA48844209D101218804FFF748
:10486000A5FE00214FF48020FFF7A0FE22E0C548FE
:10487000844208D101214020FFF787FE002140201B
:10488000FFF783FE16E0C048844208D10121802052
:10489000FFF77BFE00218020FFF777FE0AE0BB4890
:1048A000844207D101218015FFF76FFE0021A0157A
:1048B000FFF76BFE10BD00220288A84B98420ED075
:1048C000AC4B98420BD0B0F1804F08D0A44B98422B
:1048D00005D0A44B984202D0A34B984204D14FF686
:1048E0008F731A404B881A43A04B984207D0A04BB5
:1048F000984204D04FF6FF431A400B891A430280B6
:104900004B68C3620B880385944B984202D0994B45
:10491000984201D18B7A03860123838270474FF03E
:10492000FF31416000210180018141808172704727
:104930000185828270470A46002101884FF68F73F5
:10494000194011430180704741627047C16270474E
:104950000146486A70470146088D704721B10288B8
:1049600042F00202028004E002884FF6FD731A4012
:104970000280704721B1028842F00402028004E004
:1049800002884FF6FB731A400280704721B10288FB
:1049900042F08002028004E002884FF67F731A40E2
:1049A0000280704702884FF6F7731A40028002882F
:1049B0000A430280704702884FF6FF431A40028084
:1049C00002880A430280704721B1028842F0010246
:1049D000028004E002884FF6FE731A40028070479E
:1049E00070B5002400220023058C4FF6FE7635407A
:1049F0000584028C8388048B4FF68F752C40B51E7E
:104A00002C400D882C43751E2A408D892A434D88E1
:104A10002A43524DA84202D0564DA84213D14FF618
:104A2000F7752A40CD892A434FF6FB752A408D88B9
:104A30002A434FF6FF652B404FF6FF552B400D8A5A
:104A40002B434D8A2B43838004838D684563028406
:104A500070BD70B5002400220023058C4FF6EF7660
:104A600035400584028C8388048B48F6FF752C4002
:104A70004FF6FF452C400D884FF6FF7606EA0525D8
:104A80002C434FF6DF752A408D8906EA05152A4327
:104A90004D8806EA05152A43304DA84202D0354D0F
:104AA000A8421DD14FF67F752A40CD894FF6FF767B
:104AB00006EA05152A434FF6BF752A408D8806EA97
:104AC00005152A434FF6FF352B404FF2FF752B405B
:104AD0000D8A06EA85052B434D8A06EA85052B4398
:104AE000838004838D688563028470BD70B5002463
:104AF00000220023058C4FF6FF6635400584028CAA
:104B00008388848B4FF68F752C404FF6FC752C40B4
:104B10000D882C434FF6FF552A408D894FF6FF76BE
:104B200006EA05252A434D8806EA05252A430B4D4A
:104B3000A84202D00F4DA84238D14FF2FF752A404B
:104B4000CD894FF6FF7606EA05252A434FF6FF3555
:104B50002A408D8806EA05252A4319E00000014015
:104B60000004004000080040000C0040001000401D
:104B70000014004000040140004001400044014096
:104B80000048014000180040001C00400020004088
:104B90004EF6FF752B404DF6FF752B400D8A06EA49
:104BA00005152B434D8A06EA05152B438380848324
:104BB0008D68C563028470BD70B500220023002497
:104BC000058C4EF6FF7635400584038C8488828BF5
:104BD00048F6FF752A404FF6FF452A400D884FF6EC
:104BE000FF7606EA05252A434DF6FF752B408D8991
:104BF00006EA05352B434D8806EA05352B43FE4D65
:104C0000A84202D0FD4DA84208D14BF6FF752C40BA
:104C10000D8A4FF6FF7606EA85152C438480828341
:104C20008D680564038470BD00210180418081800E
:104C300081608181C18101824182704770B50346E4
:104C4000002000241846183001258D40ACB21D8C80
:104C5000A5431D8409B108290AD100EB610005684C
:104C60004FF68F76354005600568154305600FE007
:104C70000D1FC5F34E052844056848F6FF763540FC
:104C8000056005684FF6FF7606EA022635430560A3
:104C900070BD4163704781637047C16370470164B1
:104CA00070470A460021018B4FF68F73194011435C
:104CB000018370470A460021018B48F6FF731940B3
:104CC0004FF6FF7303EA02231943018370470A4634
:104CD0000021818B4FF68F731940114381837047F8
:104CE0000A460021818B48F6FF7319404FF6FF7387
:104CF00003EA02231943818370470A460021018B8E
:104D00004FF6F77319401143018370470A4600219B
:104D1000018B4FF2FF7319404FF6FF7303EA022332
:104D20001943018370470A460021818B4FF6F773C0
:104D300019401143818370470A460021818B4FF24D
:104D4000FF7319404FF6FF7303EA0223194381836F
:104D500070470A460021018B4FF6FB73194011433F
:104D6000018370470A460021018B4FF6FF3319403B
:104D70004FF6FF7303EA02231943018370470A4683
:104D80000021818B4FF6FB731940114381837047DB
:104D90000A460021818B4FF6FF3319404FF6FF730F
:104DA00003EA02231943818370470A460021018BDD
:104DB0004FF67F7319401143018370470A46002163
:104DC000018BC1F30E014FF6FF7303EA022319436F
:104DD000018370470A460021818B4FF67F7319408B
:104DE0001143818370470A460021818BC1F30E0174
:104DF0004FF6FF7303EA02231943818370470A4683
:104E00000021018C4FF6FD73194011430184704756
:104E10000A460021018C4FF6F773194011430184B3
:104E200070470A460021018C4FF6DF7319404FF698
:104E3000FF7303EA02131943018470470A460021F5
:104E4000018C4FF67F7319404FF6FF7303EA02138C
:104E50001943018470470A460021018C4FF6FF5325
:104E600019404FF6FF7303EA022319430184704788
:104E70000A460021018C4FF2FF7319404FF6FF7371
:104E800003EA02231943018470470A460021018C7A
:104E90004DF6FF7319404FF6FF7303EA02331943CF
:104EA0000184704730B5002301248C40A3B2048CE8
:104EB0009C430484048C02FA01F5ADB22C430484B3
:104EC00030BD30B5002304248C40A3B2048C9C4335
:104ED0000484048C02FA01F5ADB22C43048430BD85
:104EE000828B4FF2FF331A408283828B4FF6FF731F
:104EF00003EA01231A4382837047F0B50C46154636
:104F0000002100220026078C4EF6FF7C07EA0C07E2
:104F10000784818B028C4FF6FF7707EA043640F650
:104F2000FF4739404FF6FF7707EA052739434FF629
:104F3000FF7707EA0337394345F6FF773A4046F4EF
:104F400080573A4381830284F0BD828B4FF6F3731E
:104F50001A408283828B0A4382837047F0B50C46E5
:104F60001546002100220026078C4FF6FF6C07EA49
:104F70000C070784818B028C4FF6FF7707EA042623
:104F80004FF60C7739404FF6FF7707EA03172F43A8
:104F900039434FF2FF573A4046F480773A438183D2
:104FA0000284F0BD028B4FF2FF331A400283028B62
:104FB0004FF6FF7303EA01231A4302837047F0B5EB
:104FC0000C461546002100220026078C4FF6EF7C88
:104FD00007EA0C070784018B028C4FF6FF7707EA7C
:104FE000041640F6FF4739404FF6FF7707EA0337CC
:104FF00039434FF6FF7703E0000001400004014011
:1050000007EA052739434FF65F773A4046F0100725
:105010003A4301830284F0BD028B4FF6F3731A40CA
:105020000283028B0A4302837047F0B50C46154693
:1050300000210022068C4FF6FE773E400684018B4D
:10504000028C4FF60C7631407E1C06EA03162E4386
:1050500031434FF6F576324044F001063243018386
:105060000284F0BD70B505460C46208850B92389EE
:10507000A28861882846FFF7D8FFE1882846FFF715
:10508000CBFF25E0208804280AD12389A2886188E3
:105090002846FFF794FFE1882846FFF783FF17E0D3
:1050A000208808280AD12389A28861882846FFF72A
:1050B00055FFE1882846FFF748FF09E02389A288C9
:1050C00061882846FFF719FFE1882846FFF708FFA7
:1050D00070BD002101804180012181800021C180BB
:1050E000018170472DE9F04105460C460026012755
:1050F000608808B9022600E00026A088012801D1B6
:10510000022700E001272088A0B92389A2886188AE
:105110002846FFF78AFFE1882846FFF77DFF2389AD
:105120003A4631462846FFF74AFFE1882846FFF70E
:1051300039FF13E02389A28861882846FFF73FFFE3
:10514000E1882846FFF72EFF23893A463146284654
:10515000FFF76BFFE1882846FFF75EFFBDE8F081AF
:105160000146486B70470146886B70470146C86B23
:1051700070470146086C70470A884B881A438B8831
:105180001A43CB881A430B891A434B891A438B89DC
:105190001A43A0F84420704700210180418081809B
:1051A000C180018141818181704731B1B0F84420D3
:1051B00042F40042A0F8442005E0B0F84420C2F3D5
:1051C0000E02A0F84420704721B1828842F0040208
:1051D000828004E082884FF6FB731A408280704719
:1051E00021B1828842F00102828004E082884FF679
:1051F000FE731A40828070471AB183890B43838102
:1052000002E083898B438381704781827047024625
:105210000020138A0B400BB1012000E000207047F2
:10522000CA430282704730B50246002000230024A2
:10523000158A05EA0103958905EA010413B10CB149
:10524000012000E0002030BDCA430282704741EADD
:105250000203A0F8483070471AB183890B43838159
:1052600002E083898B438381704721B1828842F0B9
:105270000802828004E082884FF6F7731A40828029
:10528000704701894FF6F8721140018170470A4654
:10529000002101894FF68F73194011430181704736
:1052A00030B504460D4629462046FFF7F0FF208919
:1052B00040F00700208130BD2DE9F04104460D4645
:1052C00016461F46602D06D13B4601223146204638
:1052D000FFF775FE05E03B46012231462046FFF709
:1052E000A4FE29462046FFF7D2FF208940F00700A0
:1052F0002081BDE8F08130B50C4600210189C9B29A
:105300004FF6FF7505EA032515432543294301811F
:1053100030BD2DE9F04105460E461746984600245B
:1053200043463A4631462846FFF7E5FF2C894FF6BB
:10533000F870044044F007044FF68F70044044F0C6
:1053400070042C81BDE8F081F0B504460D46164688
:105350001F463B46324629462046FFF7CCFF2089B0
:1053600040F480402081F0BD82884FF68F731A4050
:10537000828082880A438280704702894FF6F873E0
:105380001A40028102890A430281704702894FF65E
:105390007F731A40028102890A4302817047F0B587
:1053A0000C4615461E460021002200230189028B6F
:1053B000038C4FF6F877394021434FF6FC473A40CB
:1053C00040F201173A434FF6DD773B404FF6FF7747
:1053D00007EA06172F433B43018102830384F0BD94
:1053E00021B1828842F08002828004E082884FF6F8
:1053F0007F731A4082807047A0F8501070470000F9
:105400000948804709480047FEE7FEE7FEE7FEE758
:10541000FEE7FEE7FEE7FEE7FEE7FEE70448054994
:10542000054A064B704700001D5500088901000819
:1054300078020020780800207804002078040020FA
:105440000CB50020019000907648006840F4803050
:105450007449086000BF7348006800F40030009091
:105460000198401C0190009818B90198B0F5A06F00
:10547000F1D16C48006800F4003010B101200090B8
:1054800001E0002000900098012846D16548403096
:10549000006840F08050634940310860624800680D
:1054A00040F48040604908605E48083000685D490B
:1054B000083108600846006840F40040086008466B
:1054C000006840F4A05008605848091F0860081F91
:1054D000006840F08070091F086000BF51480068F4
:1054E00000F000700028F9D040F2056050490860D3
:1054F0004C480830006820F003004A490831086031
:105500000846006840F00200086000BF45480830C7
:10551000006800F00C000828F8D10CBD10B5454813
:10552000006840F47000434908603E48006840F05D
:1055300001003C49086000203A49083108603948B8
:1055400000683D490840374908603C48091D08602B
:10555000081F006820F48020091F086000203149DE
:105560000C310860FFF76CFF4FF000603149803963
:10557000086010BD70B50020002202230024022123
:10558000284D08352D6805F00C0020B1042806D000
:10559000082834D107E02A4D2A4E356033E02A4DE1
:1055A000284E35602FE01F4D2D1D2D68C5F380540A
:1055B0001C4D2D1D2D6805F03F0154B1224DB5FB4A
:1055C000F1F5184E361D3668C6F3881605FB06F24F
:1055D00009E01B4DB5FBF1F5124E361D3668C6F3DA
:1055E000881605FB06F20F4D2D1D2D68C5F30145EC
:1055F0006D1C6B00B2FBF3F5124E356003E0104DED
:10560000104E356000BF00BF064D08352D68C5F34C
:1056100003150E4E705D0B4D2D68C540094E35606B
:1056200070BD00000038024000700040085440087F
:10563000003C024088ED00E0FFFFF6FE1030002441
:105640000024F400F800002000127A00FC00002082
:10565000704770477047754600F028F8AE46050061
:105660006946534620F00700854618B020B5FFF77D
:10567000D5FEBDE820404FF000064FF000074FF088
:1056800000084FF0000B21F00701AC46ACE8C00960
:10569000ACE8C009ACE8C009ACE8C0098D46704769
:1056A0000446AFF300802046FAF7B7FD0048704784
:1056B0001802002001491820ABBEFEE726000200B8
:1056C000704781F00041704780F00040704721F042
:1056D0000041704720F000407047000021F0004278
:1056E000A2F16052B2F5801F01F0004328BFD2F151
:1056F0007F6C0BD95FEA001C43EAC20242EB507098
:1057000018BF704728BF20F001007047B2F5801F16
:10571000BCBF184670474FEA410C1CF5001F02D26F
:10572000084600F04FBD70B500F056FB0000008940
:10573000FFF7F6BF4FF00040A0F580007047000073
:1057400010B591EA030F48BF83F0004300F1E283F4
:10575000841A71EB030C05D2121943EB0C03001BE6
:1057600061EB0C01DFF824E14FEA1154A4EB135C68
:105770001EEA430F18BF9EEA445F73D023EA0E036C
:10578000DCF1200E21EA045143F4801332D322FAD3
:105790000CFE10EB0E0023FA0CFE41EB0E01CCF1D7
:1057A000200E03FA0EFE10EB0E0051F10001B1F5D0
:1057B000801FCCF1200E32D201EB045112FA0EF20E
:1057C000BDE8104058BF7047401C38BF5FEA420236
:1057D00018BF7047002814BF20F0010041F10001FC
:1057E0004FEA410313F5001F38BF7047A1F1C041D4
:1057F00000F040BB012A43EB0302ACF1200CDCF1CA
:105800001F0E32BF4FF0000E23FA0CF310EB030013
:1058100041EB0451B4EB115FD0D0A1EB045101F581
:10582000801149085FEA300001EB04510ED350F1BA
:10583000000038BF12FA0EFE08D1BDE81040C9E7DB
:10584000401C38BF5FEA4202CAD1C3E7BDE810403E
:105850004FEA410313F5001F38BF7047A1F1C04163
:1058600000F008BB9EEA445F08D011EA5E0FBDE875
:10587000104004BF01F0004100207047BDE8104017
:1058800070B500F0A9FA00BF64FBBE3E0000E0FF67
:10589000491058BFC1F140415B1058BFC3F14043AC
:1058A0008B42EFF3008070472DE9C04130B4DFF840
:1058B000A0C23CEA111418BF3CEA131400F0EC80BB
:1058C00081EA03051CEA111444EAD57418BF1CEAE6
:1058D000131500F0C780A4EB05044FF0004545EA1E
:1058E000C12145EAC32341EA505143EA525304F12E
:1058F0007F74994204F500344FEAC0204FEAC22277
:1059000008BF904200F09C804FEA13650FF24016EA
:10591000765D4FEA134506FB05F7C7F1807706FB76
:1059200007F74FEAD737A7FB03687642C8F58038F8
:10593000A7FB06CE38BFA8F1010807FB08E64FF029
:10594000000EA6FB028CE6FB03CEDCF1000CCEF1D0
:10595000004E38BFAEF1010EA6FB0C584FF0000709
:105960004FF00005E6FB0E87A1FB08C6A0FB07CEA3
:1059700016EB0E0645F10005E1FB076515F1E04E5B
:105980007EBFA4F580345FEA46066D4116F18007BC
:1059900045F100054FEA17274FEA066647EA056713
:1059A000A6F1DE46B6F1805F4FEA15251FD93846CD
:1059B00024F0010C05EBC471BCF1FE6F01EB0C117E
:1059C00002D8F0BCBDE8008124425CBF01F5801E16
:1059D0009EEAC47F02D4F0BCBDE80081244238D4E2
:1059E000F0BCA1F1C041BDE8004100F043BA4FEA6C
:1059F000D22242EA43524FEAD323A7FB02864FEA60
:105A0000D02040EA415007FB03661EEA0E0F4FEA22
:105A1000D12105FB026658BFA6EB0056B6EB005637
:105A20004FEA520E4EEAC37E18EB0E0E56EB530EA3
:105A3000BDD518EB02085E417F1C55F10005B6E7A5
:105A40004FF480154FF000074FF000064FF00008AC
:105A5000ADE7F0BC4FF0000001F1C04101F00041A2
:105A6000BDE8008111EA0C1F0CEA131500D00CE010
:105A700013EA0C1F00F025804FF00000F0BC81EA13
:105A8000030101F00041BDE80081F0BCBDE8004128
:105A900081EA030100F0EEB9F0BCBDE8004170B549
:105AA00000F09AF9097EFC3E00F007B881EA030194
:105AB0004FF0000001F00041704781EA030100F05F
:105AC000D9B9F0BCBDE800414FF000002149704752
:105AD000FFFDFBF9F7F5F4F2F0EEEDEBE9E8E6E4B3
